{
  "contractName": "RealEstate",
  "abi": [
    {
      "anonymous": false,
      "inputs": [
        {
          "indexed": false,
          "internalType": "uint256",
          "name": "propertyId",
          "type": "uint256"
        }
      ],
      "name": "PropertySold",
      "type": "event"
    },
    {
      "inputs": [
        {
          "internalType": "uint256",
          "name": "",
          "type": "uint256"
        }
      ],
      "name": "properties",
      "outputs": [
        {
          "internalType": "uint256",
          "name": "price",
          "type": "uint256"
        },
        {
          "internalType": "address",
          "name": "owner",
          "type": "address"
        },
        {
          "internalType": "bool",
          "name": "forSale",
          "type": "bool"
        },
        {
          "internalType": "string",
          "name": "name",
          "type": "string"
        },
        {
          "internalType": "string",
          "name": "description",
          "type": "string"
        },
        {
          "internalType": "string",
          "name": "location",
          "type": "string"
        }
      ],
      "stateMutability": "view",
      "type": "function"
    },
    {
      "inputs": [
        {
          "internalType": "uint256",
          "name": "",
          "type": "uint256"
        }
      ],
      "name": "propertyIds",
      "outputs": [
        {
          "internalType": "uint256",
          "name": "",
          "type": "uint256"
        }
      ],
      "stateMutability": "view",
      "type": "function"
    },
    {
      "inputs": [
        {
          "internalType": "uint256",
          "name": "_propertyId",
          "type": "uint256"
        },
        {
          "internalType": "uint256",
          "name": "_price",
          "type": "uint256"
        },
        {
          "internalType": "string",
          "name": "_name",
          "type": "string"
        },
        {
          "internalType": "string",
          "name": "_description",
          "type": "string"
        },
        {
          "internalType": "string",
          "name": "_location",
          "type": "string"
        }
      ],
      "name": "listPropertiesForSale",
      "outputs": [],
      "stateMutability": "nonpayable",
      "type": "function"
    },
    {
      "inputs": [
        {
          "internalType": "uint256",
          "name": "_propertyId",
          "type": "uint256"
        }
      ],
      "name": "buyProperty",
      "outputs": [],
      "stateMutability": "payable",
      "type": "function"
    }
  ],
  "bytecode": "0x608060405234801561001057600080fd5b50610e1c806100206000396000f3fe60806040526004361061003f5760003560e01c806323abb791146100445780636fa830a61461006d578063d03b47f414610089578063f7b10808146100c6575b600080fd5b34801561005057600080fd5b5061006b600480360381019061006691906107b9565b610108565b005b61008760048036038101906100829190610888565b61024c565b005b34801561009557600080fd5b506100b060048036038101906100ab9190610888565b610404565b6040516100bd91906108c4565b60405180910390f35b3480156100d257600080fd5b506100ed60048036038101906100e89190610888565b610428565b6040516100ff969594939291906109ba565b60405180910390f35b60006040518060c001604052808681526020013373ffffffffffffffffffffffffffffffffffffffff168152602001600115158152602001858152602001848152602001838152509050806000808881526020019081526020016000206000820151816000015560208201518160010160006101000a81548173ffffffffffffffffffffffffffffffffffffffff021916908373ffffffffffffffffffffffffffffffffffffffff16021790555060408201518160010160146101000a81548160ff02191690831515021790555060608201518160020190816101eb9190610c3c565b5060808201518160030190816102019190610c3c565b5060a08201518160040190816102179190610c3c565b509050506001869080600181540180825580915050600190039060005260206000200160009091909190915055505050505050565b600080600083815260200190815260200160002090508060010160149054906101000a900460ff166102b3576040517f08c379a00000000000000000000000000000000000000000000000000000000081526004016102aa90610d5a565b60405180910390fd5b34816000015411156102fa576040517f08c379a00000000000000000000000000000000000000000000000000000000081526004016102f190610dc6565b60405180910390fd5b338160010160006101000a81548173ffffffffffffffffffffffffffffffffffffffff021916908373ffffffffffffffffffffffffffffffffffffffff16021790555060008160010160146101000a81548160ff0219169083151502179055508060010160009054906101000a900473ffffffffffffffffffffffffffffffffffffffff1673ffffffffffffffffffffffffffffffffffffffff166108fc82600001549081150290604051600060405180830381858888f193505050501580156103c8573d6000803e3d6000fd5b507fca00b0637134f6563551ffb097ffc572f30140029b94a4a1e7ef423b475a894f826040516103f891906108c4565b60405180910390a15050565b6001818154811061041457600080fd5b906000526020600020016000915090505481565b60006020528060005260406000206000915090508060000154908060010160009054906101000a900473ffffffffffffffffffffffffffffffffffffffff16908060010160149054906101000a900460ff169080600201805461048a90610a5f565b80601f01602080910402602001604051908101604052809291908181526020018280546104b690610a5f565b80156105035780601f106104d857610100808354040283529160200191610503565b820191906000526020600020905b8154815290600101906020018083116104e657829003601f168201915b50505050509080600301805461051890610a5f565b80601f016020809104026020016040519081016040528092919081815260200182805461054490610a5f565b80156105915780601f1061056657610100808354040283529160200191610591565b820191906000526020600020905b81548152906001019060200180831161057457829003601f168201915b5050505050908060040180546105a690610a5f565b80601f01602080910402602001604051908101604052809291908181526020018280546105d290610a5f565b801561061f5780601f106105f45761010080835404028352916020019161061f565b820191906000526020600020905b81548152906001019060200180831161060257829003601f168201915b5050505050905086565b6000604051905090565b600080fd5b600080fd5b6000819050919050565b6106508161063d565b811461065b57600080fd5b50565b60008135905061066d81610647565b92915050565b600080fd5b600080fd5b6000601f19601f8301169050919050565b7f4e487b7100000000000000000000000000000000000000000000000000000000600052604160045260246000fd5b6106c68261067d565b810181811067ffffffffffffffff821117156106e5576106e461068e565b5b80604052505050565b60006106f8610629565b905061070482826106bd565b919050565b600067ffffffffffffffff8211156107245761072361068e565b5b61072d8261067d565b9050602081019050919050565b82818337600083830152505050565b600061075c61075784610709565b6106ee565b90508281526020810184848401111561077857610777610678565b5b61078384828561073a565b509392505050565b600082601f8301126107a05761079f610673565b5b81356107b0848260208601610749565b91505092915050565b600080600080600060a086880312156107d5576107d4610633565b5b60006107e38882890161065e565b95505060206107f48882890161065e565b945050604086013567ffffffffffffffff81111561081557610814610638565b5b6108218882890161078b565b935050606086013567ffffffffffffffff81111561084257610841610638565b5b61084e8882890161078b565b925050608086013567ffffffffffffffff81111561086f5761086e610638565b5b61087b8882890161078b565b9150509295509295909350565b60006020828403121561089e5761089d610633565b5b60006108ac8482850161065e565b91505092915050565b6108be8161063d565b82525050565b60006020820190506108d960008301846108b5565b92915050565b600073ffffffffffffffffffffffffffffffffffffffff82169050919050565b600061090a826108df565b9050919050565b61091a816108ff565b82525050565b60008115159050919050565b61093581610920565b82525050565b600081519050919050565b600082825260208201905092915050565b60005b8381101561097557808201518184015260208101905061095a565b60008484015250505050565b600061098c8261093b565b6109968185610946565b93506109a6818560208601610957565b6109af8161067d565b840191505092915050565b600060c0820190506109cf60008301896108b5565b6109dc6020830188610911565b6109e9604083018761092c565b81810360608301526109fb8186610981565b90508181036080830152610a0f8185610981565b905081810360a0830152610a238184610981565b9050979650505050505050565b7f4e487b7100000000000000000000000000000000000000000000000000000000600052602260045260246000fd5b60006002820490506001821680610a7757607f821691505b602082108103610a8a57610a89610a30565b5b50919050565b60008190508160005260206000209050919050565b60006020601f8301049050919050565b600082821b905092915050565b600060088302610af27fffffffffffffffffffffffffffffffffffffffffffffffffffffffffffffffff82610ab5565b610afc8683610ab5565b95508019841693508086168417925050509392505050565b6000819050919050565b6000610b39610b34610b2f8461063d565b610b14565b61063d565b9050919050565b6000819050919050565b610b5383610b1e565b610b67610b5f82610b40565b848454610ac2565b825550505050565b600090565b610b7c610b6f565b610b87818484610b4a565b505050565b5b81811015610bab57610ba0600082610b74565b600181019050610b8d565b5050565b601f821115610bf057610bc181610a90565b610bca84610aa5565b81016020851015610bd9578190505b610bed610be585610aa5565b830182610b8c565b50505b505050565b600082821c905092915050565b6000610c1360001984600802610bf5565b1980831691505092915050565b6000610c2c8383610c02565b9150826002028217905092915050565b610c458261093b565b67ffffffffffffffff811115610c5e57610c5d61068e565b5b610c688254610a5f565b610c73828285610baf565b600060209050601f831160018114610ca65760008415610c94578287015190505b610c9e8582610c20565b865550610d06565b601f198416610cb486610a90565b60005b82811015610cdc57848901518255600182019150602085019450602081019050610cb7565b86831015610cf95784890151610cf5601f891682610c02565b8355505b6001600288020188555050505b505050505050565b7f70726f7065727479206973206e6f7420666f722073616c650000000000000000600082015250565b6000610d44601883610946565b9150610d4f82610d0e565b602082019050919050565b60006020820190508181036000830152610d7381610d37565b9050919050565b7f496e73756666696369656e742062616c616e6365000000000000000000000000600082015250565b6000610db0601483610946565b9150610dbb82610d7a565b602082019050919050565b60006020820190508181036000830152610ddf81610da3565b905091905056fea2646970667358221220148201cd9bf3e2dc0d8ea19e90c32107b09599b253e4f6362fe8aab96ffec3dd64736f6c63430008110033",
  "immutableReferences": {},
  "source": "// SPDX-License-Identifier: MIT\r\npragma solidity ^0.8.17;\r\n\r\nimport {SafeMath} from \"./math/SafeMath.sol\";\r\n\r\ncontract RealEstate {\r\n // I made use of the USING key word here because i'm making use of SafeMath package library\r\n     using SafeMath for uint256;\r\n    \r\n// list out the PROPERTIES of our smart contract \r\n     struct Property{\r\n        uint256 price;\r\n        address owner;\r\n        bool forSale;\r\n        string name;\r\n        string description;\r\n        string location;\r\n     }\r\n//Here we have to do the mapping to keep track of every single property we will be using\r\n\r\n   mapping (uint256=> Property) public properties;\r\n//Here i created an Array for the Properties IDs so that they can be easily to track by the mapping\r\n   \r\n   uint256[] public propertyIds;\r\n\r\n   event PropertySold(uint256 propertyId);\r\n\r\n//So to continue i first list the properties for sale\r\n//Here is the Function that allowed the User to List the property for sale  \r\n   function listPropertiesForSale(uint256 _propertyId, uint256 _price, string memory _name, string memory _description, string memory\r\n    _location)public{\r\n//Here i updated the Structs\r\n      Property memory newProperty = Property({\r\n          price: _price,\r\n          owner: msg.sender,\r\n          forSale: true,\r\n          name: _name,\r\n          description: _description,\r\n          location: _location\r\n\r\n   });\r\n       \r\n       properties[_propertyId]= newProperty;\r\n       propertyIds.push(_propertyId);\r\n}\r\n\r\n   //Here we will create the function to buy properties\r\n\r\n   function buyProperty(uint256 _propertyId) public payable {\r\n\r\n      Property storage property = properties[_propertyId];\r\n\r\n      // first we have to do some checks if the property is up for sale or the proprty is not and to do those checks we make \r\n      //use of the require keyword\r\n\r\n      require(property.forSale, \"property is not for sale\");\r\n      require(property.price<=msg.value, \"Insufficient balance\");\r\n\r\n      property.owner = msg.sender;\r\n      property.forSale = false;\r\n\r\n      payable(property.owner).transfer(property.price);\r\n      \r\n      emit PropertySold(_propertyId);\r\n   \r\n   }\r\n\r\n\r\n\r\n\r\n\r\n\r\n}",
  "sourcePath": "C:\\Users\\HP\\Documents\\Real Estate Smart Contract\\contracts\\RealEstate.sol",
  "compiler": {
    "name": "solc",
    "version": "0.8.17+commit.8df45f5f.Emscripten.clang"
  },
  "schemaVersion": "3.4.16",
  "updatedAt": "2024-11-23T22:48:23.931Z",
  "devdoc": {
    "kind": "dev",
    "methods": {},
    "version": 1
  },
  "userdoc": {
    "kind": "user",
    "methods": {},
    "version": 1
  }
}